{
	"vulnerable_contract.sol": {
		"VContract": {
			"abi": [
				{
					"inputs": [],
					"name": "balance",
					"outputs": [
						{
							"internalType": "uint256",
							"name": "",
							"type": "uint256"
						}
					],
					"stateMutability": "view",
					"type": "function"
				},
				{
					"inputs": [
						{
							"internalType": "address",
							"name": "",
							"type": "address"
						}
					],
					"name": "balances",
					"outputs": [
						{
							"internalType": "uint256",
							"name": "",
							"type": "uint256"
						}
					],
					"stateMutability": "view",
					"type": "function"
				},
				{
					"inputs": [],
					"name": "deposit",
					"outputs": [],
					"stateMutability": "payable",
					"type": "function"
				},
				{
					"inputs": [],
					"name": "withdraw",
					"outputs": [],
					"stateMutability": "payable",
					"type": "function"
				}
			],
			"devdoc": {
				"kind": "dev",
				"methods": {},
				"version": 1
			},
			"evm": {
				"assembly": "    /* \"vulnerable_contract.sol\":76:907  contract VContract {... */\n  mstore(0x40, 0x80)\n  callvalue\n  dup1\n  iszero\n  tag_1\n  jumpi\n  0x00\n  dup1\n  revert\ntag_1:\n  pop\n  dataSize(sub_0)\n  dup1\n  dataOffset(sub_0)\n  0x00\n  codecopy\n  0x00\n  return\nstop\n\nsub_0: assembly {\n        /* \"vulnerable_contract.sol\":76:907  contract VContract {... */\n      mstore(0x40, 0x80)\n      jumpi(tag_1, lt(calldatasize, 0x04))\n      shr(0xe0, calldataload(0x00))\n      dup1\n      0x27e235e3\n      eq\n      tag_2\n      jumpi\n      dup1\n      0x3ccfd60b\n      eq\n      tag_3\n      jumpi\n      dup1\n      0xb69ef8a8\n      eq\n      tag_4\n      jumpi\n      dup1\n      0xd0e30db0\n      eq\n      tag_5\n      jumpi\n    tag_1:\n      0x00\n      dup1\n      revert\n        /* \"vulnerable_contract.sol\":102:145  mapping ( address => uint ) public balances */\n    tag_2:\n      callvalue\n      dup1\n      iszero\n      tag_6\n      jumpi\n      0x00\n      dup1\n      revert\n    tag_6:\n      pop\n      tag_7\n      0x04\n      dup1\n      calldatasize\n      sub\n      dup2\n      add\n      swap1\n      tag_8\n      swap2\n      swap1\n      tag_9\n      jump\t// in\n    tag_8:\n      tag_10\n      jump\t// in\n    tag_7:\n      mload(0x40)\n      tag_11\n      swap2\n      swap1\n      tag_12\n      jump\t// in\n    tag_11:\n      mload(0x40)\n      dup1\n      swap2\n      sub\n      swap1\n      return\n        /* \"vulnerable_contract.sol\":335:761  function withdraw () public payable {... */\n    tag_3:\n      tag_13\n      tag_14\n      jump\t// in\n    tag_13:\n      stop\n        /* \"vulnerable_contract.sol\":803:904  function balance () public view returns ( uint256 ) {... */\n    tag_4:\n      callvalue\n      dup1\n      iszero\n      tag_15\n      jumpi\n      0x00\n      dup1\n      revert\n    tag_15:\n      pop\n      tag_16\n      tag_17\n      jump\t// in\n    tag_16:\n      mload(0x40)\n      tag_18\n      swap2\n      swap1\n      tag_12\n      jump\t// in\n    tag_18:\n      mload(0x40)\n      dup1\n      swap2\n      sub\n      swap1\n      return\n        /* \"vulnerable_contract.sol\":153:329  function deposit () public payable {... */\n    tag_5:\n      tag_19\n      tag_20\n      jump\t// in\n    tag_19:\n      stop\n        /* \"vulnerable_contract.sol\":102:145  mapping ( address => uint ) public balances */\n    tag_10:\n      mstore(0x20, 0x00)\n      dup1\n      0x00\n      mstore\n      keccak256(0x00, 0x40)\n      0x00\n      swap2\n      pop\n      swap1\n      pop\n      sload\n      dup2\n      jump\t// out\n        /* \"vulnerable_contract.sol\":335:761  function withdraw () public payable {... */\n    tag_14:\n        /* \"vulnerable_contract.sol\":455:462  1 ether */\n      0x0de0b6b3a7640000\n        /* \"vulnerable_contract.sol\":426:434  balances */\n      0x00\n        /* \"vulnerable_contract.sol\":426:451  balances [ msg . sender ] */\n      dup1\n        /* \"vulnerable_contract.sol\":437:449  msg . sender */\n      caller\n        /* \"vulnerable_contract.sol\":426:451  balances [ msg . sender ] */\n      0xffffffffffffffffffffffffffffffffffffffff\n      and\n      0xffffffffffffffffffffffffffffffffffffffff\n      and\n      dup2\n      mstore\n      0x20\n      add\n      swap1\n      dup2\n      mstore\n      0x20\n      add\n      0x00\n      keccak256\n      sload\n        /* \"vulnerable_contract.sol\":426:462  balances [ msg . sender ] >= 1 ether */\n      lt\n      iszero\n        /* \"vulnerable_contract.sol\":411:505  require (... */\n      tag_22\n      jumpi\n      mload(0x40)\n      0x08c379a000000000000000000000000000000000000000000000000000000000\n      dup2\n      mstore\n      0x04\n      add\n      tag_23\n      swap1\n      tag_24\n      jump\t// in\n    tag_23:\n      mload(0x40)\n      dup1\n      swap2\n      sub\n      swap1\n      revert\n    tag_22:\n        /* \"vulnerable_contract.sol\":513:524  uint256 bal */\n      0x00\n        /* \"vulnerable_contract.sol\":527:535  balances */\n      dup1\n        /* \"vulnerable_contract.sol\":527:552  balances [ msg . sender ] */\n      0x00\n        /* \"vulnerable_contract.sol\":538:550  msg . sender */\n      caller\n        /* \"vulnerable_contract.sol\":527:552  balances [ msg . sender ] */\n      0xffffffffffffffffffffffffffffffffffffffff\n      and\n      0xffffffffffffffffffffffffffffffffffffffff\n      and\n      dup2\n      mstore\n      0x20\n      add\n      swap1\n      dup2\n      mstore\n      0x20\n      add\n      0x00\n      keccak256\n      sload\n        /* \"vulnerable_contract.sol\":513:552  uint256 bal = balances [ msg . sender ] */\n      swap1\n      pop\n        /* \"vulnerable_contract.sol\":591:600  bool sent */\n      0x00\n        /* \"vulnerable_contract.sol\":606:618  msg . sender */\n      caller\n        /* \"vulnerable_contract.sol\":606:625  msg . sender . call */\n      0xffffffffffffffffffffffffffffffffffffffff\n      and\n        /* \"vulnerable_contract.sol\":636:639  bal */\n      dup3\n        /* \"vulnerable_contract.sol\":606:645  msg . sender . call { value : bal }(\"\") */\n      mload(0x40)\n      tag_25\n      swap1\n      tag_26\n      jump\t// in\n    tag_25:\n      0x00\n      mload(0x40)\n      dup1\n      dup4\n      sub\n      dup2\n      dup6\n      dup8\n      gas\n      call\n      swap3\n      pop\n      pop\n      pop\n      returndatasize\n      dup1\n      0x00\n      dup2\n      eq\n      tag_29\n      jumpi\n      mload(0x40)\n      swap2\n      pop\n      and(add(returndatasize, 0x3f), not(0x1f))\n      dup3\n      add\n      0x40\n      mstore\n      returndatasize\n      dup3\n      mstore\n      returndatasize\n      0x00\n      0x20\n      dup5\n      add\n      returndatacopy\n      jump(tag_28)\n    tag_29:\n      0x60\n      swap2\n      pop\n    tag_28:\n      pop\n        /* \"vulnerable_contract.sol\":589:645  ( bool sent ,) = msg . sender . call { value : bal }(\"\") */\n      pop\n      swap1\n      pop\n        /* \"vulnerable_contract.sol\":663:667  sent */\n      dup1\n        /* \"vulnerable_contract.sol\":653:693  require ( sent , \" Failed to withdraw \") */\n      tag_30\n      jumpi\n      mload(0x40)\n      0x08c379a000000000000000000000000000000000000000000000000000000000\n      dup2\n      mstore\n      0x04\n      add\n      tag_31\n      swap1\n      tag_32\n      jump\t// in\n    tag_31:\n      mload(0x40)\n      dup1\n      swap2\n      sub\n      swap1\n      revert\n    tag_30:\n        /* \"vulnerable_contract.sol\":752:753  0 */\n      0x00\n        /* \"vulnerable_contract.sol\":724:732  balances */\n      dup1\n        /* \"vulnerable_contract.sol\":724:749  balances [ msg . sender ] */\n      0x00\n        /* \"vulnerable_contract.sol\":735:747  msg . sender */\n      caller\n        /* \"vulnerable_contract.sol\":724:749  balances [ msg . sender ] */\n      0xffffffffffffffffffffffffffffffffffffffff\n      and\n      0xffffffffffffffffffffffffffffffffffffffff\n      and\n      dup2\n      mstore\n      0x20\n      add\n      swap1\n      dup2\n      mstore\n      0x20\n      add\n      0x00\n      keccak256\n        /* \"vulnerable_contract.sol\":724:753  balances [ msg . sender ] = 0 */\n      dup2\n      swap1\n      sstore\n      pop\n        /* \"vulnerable_contract.sol\":371:761  {... */\n      pop\n      pop\n        /* \"vulnerable_contract.sol\":335:761  function withdraw () public payable {... */\n      jump\t// out\n        /* \"vulnerable_contract.sol\":803:904  function balance () public view returns ( uint256 ) {... */\n    tag_17:\n        /* \"vulnerable_contract.sol\":845:852  uint256 */\n      0x00\n        /* \"vulnerable_contract.sol\":869:895  address ( this ) . balance */\n      selfbalance\n        /* \"vulnerable_contract.sol\":862:895  return address ( this ) . balance */\n      swap1\n      pop\n        /* \"vulnerable_contract.sol\":803:904  function balance () public view returns ( uint256 ) {... */\n      swap1\n      jump\t// out\n        /* \"vulnerable_contract.sol\":153:329  function deposit () public payable {... */\n    tag_20:\n        /* \"vulnerable_contract.sol\":220:227  1 ether */\n      0x0de0b6b3a7640000\n        /* \"vulnerable_contract.sol\":205:216  msg . value */\n      callvalue\n        /* \"vulnerable_contract.sol\":205:227  msg . value >= 1 ether */\n      lt\n      iszero\n        /* \"vulnerable_contract.sol\":195:272  require ( msg . value >= 1 ether , \" Desposit must be no less than 1 Ether \") */\n      tag_35\n      jumpi\n      mload(0x40)\n      0x08c379a000000000000000000000000000000000000000000000000000000000\n      dup2\n      mstore\n      0x04\n      add\n      tag_36\n      swap1\n      tag_37\n      jump\t// in\n    tag_36:\n      mload(0x40)\n      dup1\n      swap2\n      sub\n      swap1\n      revert\n    tag_35:\n        /* \"vulnerable_contract.sol\":309:320  msg . value */\n      callvalue\n        /* \"vulnerable_contract.sol\":280:288  balances */\n      0x00\n        /* \"vulnerable_contract.sol\":280:305  balances [ msg . sender ] */\n      dup1\n        /* \"vulnerable_contract.sol\":291:303  msg . sender */\n      caller\n        /* \"vulnerable_contract.sol\":280:305  balances [ msg . sender ] */\n      0xffffffffffffffffffffffffffffffffffffffff\n      and\n      0xffffffffffffffffffffffffffffffffffffffff\n      and\n      dup2\n      mstore\n      0x20\n      add\n      swap1\n      dup2\n      mstore\n      0x20\n      add\n      0x00\n      keccak256\n      0x00\n        /* \"vulnerable_contract.sol\":280:320  balances [ msg . sender ] += msg . value */\n      dup3\n      dup3\n      sload\n      tag_38\n      swap2\n      swap1\n      tag_39\n      jump\t// in\n    tag_38:\n      swap3\n      pop\n      pop\n      dup2\n      swap1\n      sstore\n      pop\n        /* \"vulnerable_contract.sol\":153:329  function deposit () public payable {... */\n      jump\t// out\n        /* \"#utility.yul\":88:205   */\n    tag_41:\n        /* \"#utility.yul\":197:198   */\n      0x00\n        /* \"#utility.yul\":194:195   */\n      dup1\n        /* \"#utility.yul\":187:199   */\n      revert\n        /* \"#utility.yul\":334:460   */\n    tag_43:\n        /* \"#utility.yul\":371:378   */\n      0x00\n        /* \"#utility.yul\":411:453   */\n      0xffffffffffffffffffffffffffffffffffffffff\n        /* \"#utility.yul\":404:409   */\n      dup3\n        /* \"#utility.yul\":400:454   */\n      and\n        /* \"#utility.yul\":389:454   */\n      swap1\n      pop\n        /* \"#utility.yul\":334:460   */\n      swap2\n      swap1\n      pop\n      jump\t// out\n        /* \"#utility.yul\":466:562   */\n    tag_44:\n        /* \"#utility.yul\":503:510   */\n      0x00\n        /* \"#utility.yul\":532:556   */\n      tag_66\n        /* \"#utility.yul\":550:555   */\n      dup3\n        /* \"#utility.yul\":532:556   */\n      tag_43\n      jump\t// in\n    tag_66:\n        /* \"#utility.yul\":521:556   */\n      swap1\n      pop\n        /* \"#utility.yul\":466:562   */\n      swap2\n      swap1\n      pop\n      jump\t// out\n        /* \"#utility.yul\":568:690   */\n    tag_45:\n        /* \"#utility.yul\":641:665   */\n      tag_68\n        /* \"#utility.yul\":659:664   */\n      dup2\n        /* \"#utility.yul\":641:665   */\n      tag_44\n      jump\t// in\n    tag_68:\n        /* \"#utility.yul\":634:639   */\n      dup2\n        /* \"#utility.yul\":631:666   */\n      eq\n        /* \"#utility.yul\":621:684   */\n      tag_69\n      jumpi\n        /* \"#utility.yul\":680:681   */\n      0x00\n        /* \"#utility.yul\":677:678   */\n      dup1\n        /* \"#utility.yul\":670:682   */\n      revert\n        /* \"#utility.yul\":621:684   */\n    tag_69:\n        /* \"#utility.yul\":568:690   */\n      pop\n      jump\t// out\n        /* \"#utility.yul\":696:835   */\n    tag_46:\n        /* \"#utility.yul\":742:747   */\n      0x00\n        /* \"#utility.yul\":780:786   */\n      dup2\n        /* \"#utility.yul\":767:787   */\n      calldataload\n        /* \"#utility.yul\":758:787   */\n      swap1\n      pop\n        /* \"#utility.yul\":796:829   */\n      tag_71\n        /* \"#utility.yul\":823:828   */\n      dup2\n        /* \"#utility.yul\":796:829   */\n      tag_45\n      jump\t// in\n    tag_71:\n        /* \"#utility.yul\":696:835   */\n      swap3\n      swap2\n      pop\n      pop\n      jump\t// out\n        /* \"#utility.yul\":841:1170   */\n    tag_9:\n        /* \"#utility.yul\":900:906   */\n      0x00\n        /* \"#utility.yul\":949:951   */\n      0x20\n        /* \"#utility.yul\":937:946   */\n      dup3\n        /* \"#utility.yul\":928:935   */\n      dup5\n        /* \"#utility.yul\":924:947   */\n      sub\n        /* \"#utility.yul\":920:952   */\n      slt\n        /* \"#utility.yul\":917:1036   */\n      iszero\n      tag_73\n      jumpi\n        /* \"#utility.yul\":955:1034   */\n      tag_74\n      tag_41\n      jump\t// in\n    tag_74:\n        /* \"#utility.yul\":917:1036   */\n    tag_73:\n        /* \"#utility.yul\":1075:1076   */\n      0x00\n        /* \"#utility.yul\":1100:1153   */\n      tag_75\n        /* \"#utility.yul\":1145:1152   */\n      dup5\n        /* \"#utility.yul\":1136:1142   */\n      dup3\n        /* \"#utility.yul\":1125:1134   */\n      dup6\n        /* \"#utility.yul\":1121:1143   */\n      add\n        /* \"#utility.yul\":1100:1153   */\n      tag_46\n      jump\t// in\n    tag_75:\n        /* \"#utility.yul\":1090:1153   */\n      swap2\n      pop\n        /* \"#utility.yul\":1046:1163   */\n      pop\n        /* \"#utility.yul\":841:1170   */\n      swap3\n      swap2\n      pop\n      pop\n      jump\t// out\n        /* \"#utility.yul\":1176:1253   */\n    tag_47:\n        /* \"#utility.yul\":1213:1220   */\n      0x00\n        /* \"#utility.yul\":1242:1247   */\n      dup2\n        /* \"#utility.yul\":1231:1247   */\n      swap1\n      pop\n        /* \"#utility.yul\":1176:1253   */\n      swap2\n      swap1\n      pop\n      jump\t// out\n        /* \"#utility.yul\":1259:1377   */\n    tag_48:\n        /* \"#utility.yul\":1346:1370   */\n      tag_78\n        /* \"#utility.yul\":1364:1369   */\n      dup2\n        /* \"#utility.yul\":1346:1370   */\n      tag_47\n      jump\t// in\n    tag_78:\n        /* \"#utility.yul\":1341:1344   */\n      dup3\n        /* \"#utility.yul\":1334:1371   */\n      mstore\n        /* \"#utility.yul\":1259:1377   */\n      pop\n      pop\n      jump\t// out\n        /* \"#utility.yul\":1383:1605   */\n    tag_12:\n        /* \"#utility.yul\":1476:1480   */\n      0x00\n        /* \"#utility.yul\":1514:1516   */\n      0x20\n        /* \"#utility.yul\":1503:1512   */\n      dup3\n        /* \"#utility.yul\":1499:1517   */\n      add\n        /* \"#utility.yul\":1491:1517   */\n      swap1\n      pop\n        /* \"#utility.yul\":1527:1598   */\n      tag_80\n        /* \"#utility.yul\":1595:1596   */\n      0x00\n        /* \"#utility.yul\":1584:1593   */\n      dup4\n        /* \"#utility.yul\":1580:1597   */\n      add\n        /* \"#utility.yul\":1571:1577   */\n      dup5\n        /* \"#utility.yul\":1527:1598   */\n      tag_48\n      jump\t// in\n    tag_80:\n        /* \"#utility.yul\":1383:1605   */\n      swap3\n      swap2\n      pop\n      pop\n      jump\t// out\n        /* \"#utility.yul\":1611:1780   */\n    tag_49:\n        /* \"#utility.yul\":1695:1706   */\n      0x00\n        /* \"#utility.yul\":1729:1735   */\n      dup3\n        /* \"#utility.yul\":1724:1727   */\n      dup3\n        /* \"#utility.yul\":1717:1736   */\n      mstore\n        /* \"#utility.yul\":1769:1773   */\n      0x20\n        /* \"#utility.yul\":1764:1767   */\n      dup3\n        /* \"#utility.yul\":1760:1774   */\n      add\n        /* \"#utility.yul\":1745:1774   */\n      swap1\n      pop\n        /* \"#utility.yul\":1611:1780   */\n      swap3\n      swap2\n      pop\n      pop\n      jump\t// out\n        /* \"#utility.yul\":1786:2011   */\n    tag_50:\n        /* \"#utility.yul\":1926:1960   */\n      0x2042616c616e6365206e6565647320746f206265206174206c65617374203120\n        /* \"#utility.yul\":1922:1923   */\n      0x00\n        /* \"#utility.yul\":1914:1920   */\n      dup3\n        /* \"#utility.yul\":1910:1924   */\n      add\n        /* \"#utility.yul\":1903:1961   */\n      mstore\n        /* \"#utility.yul\":1995:2003   */\n      0x4574686572200000000000000000000000000000000000000000000000000000\n        /* \"#utility.yul\":1990:1992   */\n      0x20\n        /* \"#utility.yul\":1982:1988   */\n      dup3\n        /* \"#utility.yul\":1978:1993   */\n      add\n        /* \"#utility.yul\":1971:2004   */\n      mstore\n        /* \"#utility.yul\":1786:2011   */\n      pop\n      jump\t// out\n        /* \"#utility.yul\":2017:2383   */\n    tag_51:\n        /* \"#utility.yul\":2159:2162   */\n      0x00\n        /* \"#utility.yul\":2180:2247   */\n      tag_84\n        /* \"#utility.yul\":2244:2246   */\n      0x26\n        /* \"#utility.yul\":2239:2242   */\n      dup4\n        /* \"#utility.yul\":2180:2247   */\n      tag_49\n      jump\t// in\n    tag_84:\n        /* \"#utility.yul\":2173:2247   */\n      swap2\n      pop\n        /* \"#utility.yul\":2256:2349   */\n      tag_85\n        /* \"#utility.yul\":2345:2348   */\n      dup3\n        /* \"#utility.yul\":2256:2349   */\n      tag_50\n      jump\t// in\n    tag_85:\n        /* \"#utility.yul\":2374:2376   */\n      0x40\n        /* \"#utility.yul\":2369:2372   */\n      dup3\n        /* \"#utility.yul\":2365:2377   */\n      add\n        /* \"#utility.yul\":2358:2377   */\n      swap1\n      pop\n        /* \"#utility.yul\":2017:2383   */\n      swap2\n      swap1\n      pop\n      jump\t// out\n        /* \"#utility.yul\":2389:2808   */\n    tag_24:\n        /* \"#utility.yul\":2555:2559   */\n      0x00\n        /* \"#utility.yul\":2593:2595   */\n      0x20\n        /* \"#utility.yul\":2582:2591   */\n      dup3\n        /* \"#utility.yul\":2578:2596   */\n      add\n        /* \"#utility.yul\":2570:2596   */\n      swap1\n      pop\n        /* \"#utility.yul\":2642:2651   */\n      dup2\n        /* \"#utility.yul\":2636:2640   */\n      dup2\n        /* \"#utility.yul\":2632:2652   */\n      sub\n        /* \"#utility.yul\":2628:2629   */\n      0x00\n        /* \"#utility.yul\":2617:2626   */\n      dup4\n        /* \"#utility.yul\":2613:2630   */\n      add\n        /* \"#utility.yul\":2606:2653   */\n      mstore\n        /* \"#utility.yul\":2670:2801   */\n      tag_87\n        /* \"#utility.yul\":2796:2800   */\n      dup2\n        /* \"#utility.yul\":2670:2801   */\n      tag_51\n      jump\t// in\n    tag_87:\n        /* \"#utility.yul\":2662:2801   */\n      swap1\n      pop\n        /* \"#utility.yul\":2389:2808   */\n      swap2\n      swap1\n      pop\n      jump\t// out\n        /* \"#utility.yul\":2814:2961   */\n    tag_52:\n        /* \"#utility.yul\":2915:2926   */\n      0x00\n        /* \"#utility.yul\":2952:2955   */\n      dup2\n        /* \"#utility.yul\":2937:2955   */\n      swap1\n      pop\n        /* \"#utility.yul\":2814:2961   */\n      swap3\n      swap2\n      pop\n      pop\n      jump\t// out\n        /* \"#utility.yul\":2967:3081   */\n    tag_53:\n      pop\n      jump\t// out\n        /* \"#utility.yul\":3087:3485   */\n    tag_54:\n        /* \"#utility.yul\":3246:3249   */\n      0x00\n        /* \"#utility.yul\":3267:3350   */\n      tag_91\n        /* \"#utility.yul\":3348:3349   */\n      0x00\n        /* \"#utility.yul\":3343:3346   */\n      dup4\n        /* \"#utility.yul\":3267:3350   */\n      tag_52\n      jump\t// in\n    tag_91:\n        /* \"#utility.yul\":3260:3350   */\n      swap2\n      pop\n        /* \"#utility.yul\":3359:3452   */\n      tag_92\n        /* \"#utility.yul\":3448:3451   */\n      dup3\n        /* \"#utility.yul\":3359:3452   */\n      tag_53\n      jump\t// in\n    tag_92:\n        /* \"#utility.yul\":3477:3478   */\n      0x00\n        /* \"#utility.yul\":3472:3475   */\n      dup3\n        /* \"#utility.yul\":3468:3479   */\n      add\n        /* \"#utility.yul\":3461:3479   */\n      swap1\n      pop\n        /* \"#utility.yul\":3087:3485   */\n      swap2\n      swap1\n      pop\n      jump\t// out\n        /* \"#utility.yul\":3491:3870   */\n    tag_26:\n        /* \"#utility.yul\":3675:3678   */\n      0x00\n        /* \"#utility.yul\":3697:3844   */\n      tag_94\n        /* \"#utility.yul\":3840:3843   */\n      dup3\n        /* \"#utility.yul\":3697:3844   */\n      tag_54\n      jump\t// in\n    tag_94:\n        /* \"#utility.yul\":3690:3844   */\n      swap2\n      pop\n        /* \"#utility.yul\":3861:3864   */\n      dup2\n        /* \"#utility.yul\":3854:3864   */\n      swap1\n      pop\n        /* \"#utility.yul\":3491:3870   */\n      swap2\n      swap1\n      pop\n      jump\t// out\n        /* \"#utility.yul\":3876:4046   */\n    tag_55:\n        /* \"#utility.yul\":4016:4038   */\n      0x204661696c656420746f20776974686472617720000000000000000000000000\n        /* \"#utility.yul\":4012:4013   */\n      0x00\n        /* \"#utility.yul\":4004:4010   */\n      dup3\n        /* \"#utility.yul\":4000:4014   */\n      add\n        /* \"#utility.yul\":3993:4039   */\n      mstore\n        /* \"#utility.yul\":3876:4046   */\n      pop\n      jump\t// out\n        /* \"#utility.yul\":4052:4418   */\n    tag_56:\n        /* \"#utility.yul\":4194:4197   */\n      0x00\n        /* \"#utility.yul\":4215:4282   */\n      tag_97\n        /* \"#utility.yul\":4279:4281   */\n      0x14\n        /* \"#utility.yul\":4274:4277   */\n      dup4\n        /* \"#utility.yul\":4215:4282   */\n      tag_49\n      jump\t// in\n    tag_97:\n        /* \"#utility.yul\":4208:4282   */\n      swap2\n      pop\n        /* \"#utility.yul\":4291:4384   */\n      tag_98\n        /* \"#utility.yul\":4380:4383   */\n      dup3\n        /* \"#utility.yul\":4291:4384   */\n      tag_55\n      jump\t// in\n    tag_98:\n        /* \"#utility.yul\":4409:4411   */\n      0x20\n        /* \"#utility.yul\":4404:4407   */\n      dup3\n        /* \"#utility.yul\":4400:4412   */\n      add\n        /* \"#utility.yul\":4393:4412   */\n      swap1\n      pop\n        /* \"#utility.yul\":4052:4418   */\n      swap2\n      swap1\n      pop\n      jump\t// out\n        /* \"#utility.yul\":4424:4843   */\n    tag_32:\n        /* \"#utility.yul\":4590:4594   */\n      0x00\n        /* \"#utility.yul\":4628:4630   */\n      0x20\n        /* \"#utility.yul\":4617:4626   */\n      dup3\n        /* \"#utility.yul\":4613:4631   */\n      add\n        /* \"#utility.yul\":4605:4631   */\n      swap1\n      pop\n        /* \"#utility.yul\":4677:4686   */\n      dup2\n        /* \"#utility.yul\":4671:4675   */\n      dup2\n        /* \"#utility.yul\":4667:4687   */\n      sub\n        /* \"#utility.yul\":4663:4664   */\n      0x00\n        /* \"#utility.yul\":4652:4661   */\n      dup4\n        /* \"#utility.yul\":4648:4665   */\n      add\n        /* \"#utility.yul\":4641:4688   */\n      mstore\n        /* \"#utility.yul\":4705:4836   */\n      tag_100\n        /* \"#utility.yul\":4831:4835   */\n      dup2\n        /* \"#utility.yul\":4705:4836   */\n      tag_56\n      jump\t// in\n    tag_100:\n        /* \"#utility.yul\":4697:4836   */\n      swap1\n      pop\n        /* \"#utility.yul\":4424:4843   */\n      swap2\n      swap1\n      pop\n      jump\t// out\n        /* \"#utility.yul\":4849:5075   */\n    tag_57:\n        /* \"#utility.yul\":4989:5023   */\n      0x20446573706f736974206d757374206265206e6f206c657373207468616e2031\n        /* \"#utility.yul\":4985:4986   */\n      0x00\n        /* \"#utility.yul\":4977:4983   */\n      dup3\n        /* \"#utility.yul\":4973:4987   */\n      add\n        /* \"#utility.yul\":4966:5024   */\n      mstore\n        /* \"#utility.yul\":5058:5067   */\n      0x2045746865722000000000000000000000000000000000000000000000000000\n        /* \"#utility.yul\":5053:5055   */\n      0x20\n        /* \"#utility.yul\":5045:5051   */\n      dup3\n        /* \"#utility.yul\":5041:5056   */\n      add\n        /* \"#utility.yul\":5034:5068   */\n      mstore\n        /* \"#utility.yul\":4849:5075   */\n      pop\n      jump\t// out\n        /* \"#utility.yul\":5081:5447   */\n    tag_58:\n        /* \"#utility.yul\":5223:5226   */\n      0x00\n        /* \"#utility.yul\":5244:5311   */\n      tag_103\n        /* \"#utility.yul\":5308:5310   */\n      0x27\n        /* \"#utility.yul\":5303:5306   */\n      dup4\n        /* \"#utility.yul\":5244:5311   */\n      tag_49\n      jump\t// in\n    tag_103:\n        /* \"#utility.yul\":5237:5311   */\n      swap2\n      pop\n        /* \"#utility.yul\":5320:5413   */\n      tag_104\n        /* \"#utility.yul\":5409:5412   */\n      dup3\n        /* \"#utility.yul\":5320:5413   */\n      tag_57\n      jump\t// in\n    tag_104:\n        /* \"#utility.yul\":5438:5440   */\n      0x40\n        /* \"#utility.yul\":5433:5436   */\n      dup3\n        /* \"#utility.yul\":5429:5441   */\n      add\n        /* \"#utility.yul\":5422:5441   */\n      swap1\n      pop\n        /* \"#utility.yul\":5081:5447   */\n      swap2\n      swap1\n      pop\n      jump\t// out\n        /* \"#utility.yul\":5453:5872   */\n    tag_37:\n        /* \"#utility.yul\":5619:5623   */\n      0x00\n        /* \"#utility.yul\":5657:5659   */\n      0x20\n        /* \"#utility.yul\":5646:5655   */\n      dup3\n        /* \"#utility.yul\":5642:5660   */\n      add\n        /* \"#utility.yul\":5634:5660   */\n      swap1\n      pop\n        /* \"#utility.yul\":5706:5715   */\n      dup2\n        /* \"#utility.yul\":5700:5704   */\n      dup2\n        /* \"#utility.yul\":5696:5716   */\n      sub\n        /* \"#utility.yul\":5692:5693   */\n      0x00\n        /* \"#utility.yul\":5681:5690   */\n      dup4\n        /* \"#utility.yul\":5677:5694   */\n      add\n        /* \"#utility.yul\":5670:5717   */\n      mstore\n        /* \"#utility.yul\":5734:5865   */\n      tag_106\n        /* \"#utility.yul\":5860:5864   */\n      dup2\n        /* \"#utility.yul\":5734:5865   */\n      tag_58\n      jump\t// in\n    tag_106:\n        /* \"#utility.yul\":5726:5865   */\n      swap1\n      pop\n        /* \"#utility.yul\":5453:5872   */\n      swap2\n      swap1\n      pop\n      jump\t// out\n        /* \"#utility.yul\":5878:6058   */\n    tag_59:\n        /* \"#utility.yul\":5926:6003   */\n      0x4e487b7100000000000000000000000000000000000000000000000000000000\n        /* \"#utility.yul\":5923:5924   */\n      0x00\n        /* \"#utility.yul\":5916:6004   */\n      mstore\n        /* \"#utility.yul\":6023:6027   */\n      0x11\n        /* \"#utility.yul\":6020:6021   */\n      0x04\n        /* \"#utility.yul\":6013:6028   */\n      mstore\n        /* \"#utility.yul\":6047:6051   */\n      0x24\n        /* \"#utility.yul\":6044:6045   */\n      0x00\n        /* \"#utility.yul\":6037:6052   */\n      revert\n        /* \"#utility.yul\":6064:6255   */\n    tag_39:\n        /* \"#utility.yul\":6104:6107   */\n      0x00\n        /* \"#utility.yul\":6123:6143   */\n      tag_109\n        /* \"#utility.yul\":6141:6142   */\n      dup3\n        /* \"#utility.yul\":6123:6143   */\n      tag_47\n      jump\t// in\n    tag_109:\n        /* \"#utility.yul\":6118:6143   */\n      swap2\n      pop\n        /* \"#utility.yul\":6157:6177   */\n      tag_110\n        /* \"#utility.yul\":6175:6176   */\n      dup4\n        /* \"#utility.yul\":6157:6177   */\n      tag_47\n      jump\t// in\n    tag_110:\n        /* \"#utility.yul\":6152:6177   */\n      swap3\n      pop\n        /* \"#utility.yul\":6200:6201   */\n      dup3\n        /* \"#utility.yul\":6197:6198   */\n      dup3\n        /* \"#utility.yul\":6193:6202   */\n      add\n        /* \"#utility.yul\":6186:6202   */\n      swap1\n      pop\n        /* \"#utility.yul\":6221:6224   */\n      dup1\n        /* \"#utility.yul\":6218:6219   */\n      dup3\n        /* \"#utility.yul\":6215:6225   */\n      gt\n        /* \"#utility.yul\":6212:6248   */\n      iszero\n      tag_111\n      jumpi\n        /* \"#utility.yul\":6228:6246   */\n      tag_112\n      tag_59\n      jump\t// in\n    tag_112:\n        /* \"#utility.yul\":6212:6248   */\n    tag_111:\n        /* \"#utility.yul\":6064:6255   */\n      swap3\n      swap2\n      pop\n      pop\n      jump\t// out\n\n    auxdata: 0xa26469706673582212208b11e64b3795c46efd3725b09b0e730beebcb32c231153d7861337a9935f4dc264736f6c63430008190033\n}\n",
				"bytecode": {
					"linkReferences": {},
					"object": "6080604052348015600e575f80fd5b5061064f8061001c5f395ff3fe60806040526004361061003e575f3560e01c806327e235e3146100425780633ccfd60b1461007e578063b69ef8a814610088578063d0e30db0146100b2575b5f80fd5b34801561004d575f80fd5b5061006860048036038101906100639190610388565b6100bc565b60405161007591906103cb565b60405180910390f35b6100866100d0565b005b348015610093575f80fd5b5061009c610284565b6040516100a991906103cb565b60405180910390f35b6100ba61028b565b005b5f602052805f5260405f205f915090505481565b670de0b6b3a76400005f803373ffffffffffffffffffffffffffffffffffffffff1673ffffffffffffffffffffffffffffffffffffffff1681526020019081526020015f20541015610157576040517f08c379a000000000000000000000000000000000000000000000000000000000815260040161014e90610464565b60405180910390fd5b5f805f3373ffffffffffffffffffffffffffffffffffffffff1673ffffffffffffffffffffffffffffffffffffffff1681526020019081526020015f205490505f3373ffffffffffffffffffffffffffffffffffffffff16826040516101bc906104af565b5f6040518083038185875af1925050503d805f81146101f6576040519150601f19603f3d011682016040523d82523d5f602084013e6101fb565b606091505b505090508061023f576040517f08c379a00000000000000000000000000000000000000000000000000000000081526004016102369061050d565b60405180910390fd5b5f805f3373ffffffffffffffffffffffffffffffffffffffff1673ffffffffffffffffffffffffffffffffffffffff1681526020019081526020015f20819055505050565b5f47905090565b670de0b6b3a76400003410156102d6576040517f08c379a00000000000000000000000000000000000000000000000000000000081526004016102cd9061059b565b60405180910390fd5b345f803373ffffffffffffffffffffffffffffffffffffffff1673ffffffffffffffffffffffffffffffffffffffff1681526020019081526020015f205f82825461032191906105e6565b92505081905550565b5f80fd5b5f73ffffffffffffffffffffffffffffffffffffffff82169050919050565b5f6103578261032e565b9050919050565b6103678161034d565b8114610371575f80fd5b50565b5f813590506103828161035e565b92915050565b5f6020828403121561039d5761039c61032a565b5b5f6103aa84828501610374565b91505092915050565b5f819050919050565b6103c5816103b3565b82525050565b5f6020820190506103de5f8301846103bc565b92915050565b5f82825260208201905092915050565b7f2042616c616e6365206e6565647320746f206265206174206c656173742031205f8201527f4574686572200000000000000000000000000000000000000000000000000000602082015250565b5f61044e6026836103e4565b9150610459826103f4565b604082019050919050565b5f6020820190508181035f83015261047b81610442565b9050919050565b5f81905092915050565b50565b5f61049a5f83610482565b91506104a58261048c565b5f82019050919050565b5f6104b98261048f565b9150819050919050565b7f204661696c656420746f207769746864726177200000000000000000000000005f82015250565b5f6104f76014836103e4565b9150610502826104c3565b602082019050919050565b5f6020820190508181035f830152610524816104eb565b9050919050565b7f20446573706f736974206d757374206265206e6f206c657373207468616e20315f8201527f2045746865722000000000000000000000000000000000000000000000000000602082015250565b5f6105856027836103e4565b91506105908261052b565b604082019050919050565b5f6020820190508181035f8301526105b281610579565b9050919050565b7f4e487b71000000000000000000000000000000000000000000000000000000005f52601160045260245ffd5b5f6105f0826103b3565b91506105fb836103b3565b9250828201905080821115610613576106126105b9565b5b9291505056fea26469706673582212208b11e64b3795c46efd3725b09b0e730beebcb32c231153d7861337a9935f4dc264736f6c63430008190033",
					"opcodes": "PUSH1 0x80 PUSH1 0x40 MSTORE CALLVALUE DUP1 ISZERO PUSH1 0xE JUMPI PUSH0 DUP1 REVERT JUMPDEST POP PUSH2 0x64F DUP1 PUSH2 0x1C PUSH0 CODECOPY PUSH0 RETURN INVALID PUSH1 0x80 PUSH1 0x40 MSTORE PUSH1 0x4 CALLDATASIZE LT PUSH2 0x3E JUMPI PUSH0 CALLDATALOAD PUSH1 0xE0 SHR DUP1 PUSH4 0x27E235E3 EQ PUSH2 0x42 JUMPI DUP1 PUSH4 0x3CCFD60B EQ PUSH2 0x7E JUMPI DUP1 PUSH4 0xB69EF8A8 EQ PUSH2 0x88 JUMPI DUP1 PUSH4 0xD0E30DB0 EQ PUSH2 0xB2 JUMPI JUMPDEST PUSH0 DUP1 REVERT JUMPDEST CALLVALUE DUP1 ISZERO PUSH2 0x4D JUMPI PUSH0 DUP1 REVERT JUMPDEST POP PUSH2 0x68 PUSH1 0x4 DUP1 CALLDATASIZE SUB DUP2 ADD SWAP1 PUSH2 0x63 SWAP2 SWAP1 PUSH2 0x388 JUMP JUMPDEST PUSH2 0xBC JUMP JUMPDEST PUSH1 0x40 MLOAD PUSH2 0x75 SWAP2 SWAP1 PUSH2 0x3CB JUMP JUMPDEST PUSH1 0x40 MLOAD DUP1 SWAP2 SUB SWAP1 RETURN JUMPDEST PUSH2 0x86 PUSH2 0xD0 JUMP JUMPDEST STOP JUMPDEST CALLVALUE DUP1 ISZERO PUSH2 0x93 JUMPI PUSH0 DUP1 REVERT JUMPDEST POP PUSH2 0x9C PUSH2 0x284 JUMP JUMPDEST PUSH1 0x40 MLOAD PUSH2 0xA9 SWAP2 SWAP1 PUSH2 0x3CB JUMP JUMPDEST PUSH1 0x40 MLOAD DUP1 SWAP2 SUB SWAP1 RETURN JUMPDEST PUSH2 0xBA PUSH2 0x28B JUMP JUMPDEST STOP JUMPDEST PUSH0 PUSH1 0x20 MSTORE DUP1 PUSH0 MSTORE PUSH1 0x40 PUSH0 KECCAK256 PUSH0 SWAP2 POP SWAP1 POP SLOAD DUP2 JUMP JUMPDEST PUSH8 0xDE0B6B3A7640000 PUSH0 DUP1 CALLER PUSH20 0xFFFFFFFFFFFFFFFFFFFFFFFFFFFFFFFFFFFFFFFF AND PUSH20 0xFFFFFFFFFFFFFFFFFFFFFFFFFFFFFFFFFFFFFFFF AND DUP2 MSTORE PUSH1 0x20 ADD SWAP1 DUP2 MSTORE PUSH1 0x20 ADD PUSH0 KECCAK256 SLOAD LT ISZERO PUSH2 0x157 JUMPI PUSH1 0x40 MLOAD PUSH32 0x8C379A000000000000000000000000000000000000000000000000000000000 DUP2 MSTORE PUSH1 0x4 ADD PUSH2 0x14E SWAP1 PUSH2 0x464 JUMP JUMPDEST PUSH1 0x40 MLOAD DUP1 SWAP2 SUB SWAP1 REVERT JUMPDEST PUSH0 DUP1 PUSH0 CALLER PUSH20 0xFFFFFFFFFFFFFFFFFFFFFFFFFFFFFFFFFFFFFFFF AND PUSH20 0xFFFFFFFFFFFFFFFFFFFFFFFFFFFFFFFFFFFFFFFF AND DUP2 MSTORE PUSH1 0x20 ADD SWAP1 DUP2 MSTORE PUSH1 0x20 ADD PUSH0 KECCAK256 SLOAD SWAP1 POP PUSH0 CALLER PUSH20 0xFFFFFFFFFFFFFFFFFFFFFFFFFFFFFFFFFFFFFFFF AND DUP3 PUSH1 0x40 MLOAD PUSH2 0x1BC SWAP1 PUSH2 0x4AF JUMP JUMPDEST PUSH0 PUSH1 0x40 MLOAD DUP1 DUP4 SUB DUP2 DUP6 DUP8 GAS CALL SWAP3 POP POP POP RETURNDATASIZE DUP1 PUSH0 DUP2 EQ PUSH2 0x1F6 JUMPI PUSH1 0x40 MLOAD SWAP2 POP PUSH1 0x1F NOT PUSH1 0x3F RETURNDATASIZE ADD AND DUP3 ADD PUSH1 0x40 MSTORE RETURNDATASIZE DUP3 MSTORE RETURNDATASIZE PUSH0 PUSH1 0x20 DUP5 ADD RETURNDATACOPY PUSH2 0x1FB JUMP JUMPDEST PUSH1 0x60 SWAP2 POP JUMPDEST POP POP SWAP1 POP DUP1 PUSH2 0x23F JUMPI PUSH1 0x40 MLOAD PUSH32 0x8C379A000000000000000000000000000000000000000000000000000000000 DUP2 MSTORE PUSH1 0x4 ADD PUSH2 0x236 SWAP1 PUSH2 0x50D JUMP JUMPDEST PUSH1 0x40 MLOAD DUP1 SWAP2 SUB SWAP1 REVERT JUMPDEST PUSH0 DUP1 PUSH0 CALLER PUSH20 0xFFFFFFFFFFFFFFFFFFFFFFFFFFFFFFFFFFFFFFFF AND PUSH20 0xFFFFFFFFFFFFFFFFFFFFFFFFFFFFFFFFFFFFFFFF AND DUP2 MSTORE PUSH1 0x20 ADD SWAP1 DUP2 MSTORE PUSH1 0x20 ADD PUSH0 KECCAK256 DUP2 SWAP1 SSTORE POP POP POP JUMP JUMPDEST PUSH0 SELFBALANCE SWAP1 POP SWAP1 JUMP JUMPDEST PUSH8 0xDE0B6B3A7640000 CALLVALUE LT ISZERO PUSH2 0x2D6 JUMPI PUSH1 0x40 MLOAD PUSH32 0x8C379A000000000000000000000000000000000000000000000000000000000 DUP2 MSTORE PUSH1 0x4 ADD PUSH2 0x2CD SWAP1 PUSH2 0x59B JUMP JUMPDEST PUSH1 0x40 MLOAD DUP1 SWAP2 SUB SWAP1 REVERT JUMPDEST CALLVALUE PUSH0 DUP1 CALLER PUSH20 0xFFFFFFFFFFFFFFFFFFFFFFFFFFFFFFFFFFFFFFFF AND PUSH20 0xFFFFFFFFFFFFFFFFFFFFFFFFFFFFFFFFFFFFFFFF AND DUP2 MSTORE PUSH1 0x20 ADD SWAP1 DUP2 MSTORE PUSH1 0x20 ADD PUSH0 KECCAK256 PUSH0 DUP3 DUP3 SLOAD PUSH2 0x321 SWAP2 SWAP1 PUSH2 0x5E6 JUMP JUMPDEST SWAP3 POP POP DUP2 SWAP1 SSTORE POP JUMP JUMPDEST PUSH0 DUP1 REVERT JUMPDEST PUSH0 PUSH20 0xFFFFFFFFFFFFFFFFFFFFFFFFFFFFFFFFFFFFFFFF DUP3 AND SWAP1 POP SWAP2 SWAP1 POP JUMP JUMPDEST PUSH0 PUSH2 0x357 DUP3 PUSH2 0x32E JUMP JUMPDEST SWAP1 POP SWAP2 SWAP1 POP JUMP JUMPDEST PUSH2 0x367 DUP2 PUSH2 0x34D JUMP JUMPDEST DUP2 EQ PUSH2 0x371 JUMPI PUSH0 DUP1 REVERT JUMPDEST POP JUMP JUMPDEST PUSH0 DUP2 CALLDATALOAD SWAP1 POP PUSH2 0x382 DUP2 PUSH2 0x35E JUMP JUMPDEST SWAP3 SWAP2 POP POP JUMP JUMPDEST PUSH0 PUSH1 0x20 DUP3 DUP5 SUB SLT ISZERO PUSH2 0x39D JUMPI PUSH2 0x39C PUSH2 0x32A JUMP JUMPDEST JUMPDEST PUSH0 PUSH2 0x3AA DUP5 DUP3 DUP6 ADD PUSH2 0x374 JUMP JUMPDEST SWAP2 POP POP SWAP3 SWAP2 POP POP JUMP JUMPDEST PUSH0 DUP2 SWAP1 POP SWAP2 SWAP1 POP JUMP JUMPDEST PUSH2 0x3C5 DUP2 PUSH2 0x3B3 JUMP JUMPDEST DUP3 MSTORE POP POP JUMP JUMPDEST PUSH0 PUSH1 0x20 DUP3 ADD SWAP1 POP PUSH2 0x3DE PUSH0 DUP4 ADD DUP5 PUSH2 0x3BC JUMP JUMPDEST SWAP3 SWAP2 POP POP JUMP JUMPDEST PUSH0 DUP3 DUP3 MSTORE PUSH1 0x20 DUP3 ADD SWAP1 POP SWAP3 SWAP2 POP POP JUMP JUMPDEST PUSH32 0x2042616C616E6365206E6565647320746F206265206174206C65617374203120 PUSH0 DUP3 ADD MSTORE PUSH32 0x4574686572200000000000000000000000000000000000000000000000000000 PUSH1 0x20 DUP3 ADD MSTORE POP JUMP JUMPDEST PUSH0 PUSH2 0x44E PUSH1 0x26 DUP4 PUSH2 0x3E4 JUMP JUMPDEST SWAP2 POP PUSH2 0x459 DUP3 PUSH2 0x3F4 JUMP JUMPDEST PUSH1 0x40 DUP3 ADD SWAP1 POP SWAP2 SWAP1 POP JUMP JUMPDEST PUSH0 PUSH1 0x20 DUP3 ADD SWAP1 POP DUP2 DUP2 SUB PUSH0 DUP4 ADD MSTORE PUSH2 0x47B DUP2 PUSH2 0x442 JUMP JUMPDEST SWAP1 POP SWAP2 SWAP1 POP JUMP JUMPDEST PUSH0 DUP2 SWAP1 POP SWAP3 SWAP2 POP POP JUMP JUMPDEST POP JUMP JUMPDEST PUSH0 PUSH2 0x49A PUSH0 DUP4 PUSH2 0x482 JUMP JUMPDEST SWAP2 POP PUSH2 0x4A5 DUP3 PUSH2 0x48C JUMP JUMPDEST PUSH0 DUP3 ADD SWAP1 POP SWAP2 SWAP1 POP JUMP JUMPDEST PUSH0 PUSH2 0x4B9 DUP3 PUSH2 0x48F JUMP JUMPDEST SWAP2 POP DUP2 SWAP1 POP SWAP2 SWAP1 POP JUMP JUMPDEST PUSH32 0x204661696C656420746F20776974686472617720000000000000000000000000 PUSH0 DUP3 ADD MSTORE POP JUMP JUMPDEST PUSH0 PUSH2 0x4F7 PUSH1 0x14 DUP4 PUSH2 0x3E4 JUMP JUMPDEST SWAP2 POP PUSH2 0x502 DUP3 PUSH2 0x4C3 JUMP JUMPDEST PUSH1 0x20 DUP3 ADD SWAP1 POP SWAP2 SWAP1 POP JUMP JUMPDEST PUSH0 PUSH1 0x20 DUP3 ADD SWAP1 POP DUP2 DUP2 SUB PUSH0 DUP4 ADD MSTORE PUSH2 0x524 DUP2 PUSH2 0x4EB JUMP JUMPDEST SWAP1 POP SWAP2 SWAP1 POP JUMP JUMPDEST PUSH32 0x20446573706F736974206D757374206265206E6F206C657373207468616E2031 PUSH0 DUP3 ADD MSTORE PUSH32 0x2045746865722000000000000000000000000000000000000000000000000000 PUSH1 0x20 DUP3 ADD MSTORE POP JUMP JUMPDEST PUSH0 PUSH2 0x585 PUSH1 0x27 DUP4 PUSH2 0x3E4 JUMP JUMPDEST SWAP2 POP PUSH2 0x590 DUP3 PUSH2 0x52B JUMP JUMPDEST PUSH1 0x40 DUP3 ADD SWAP1 POP SWAP2 SWAP1 POP JUMP JUMPDEST PUSH0 PUSH1 0x20 DUP3 ADD SWAP1 POP DUP2 DUP2 SUB PUSH0 DUP4 ADD MSTORE PUSH2 0x5B2 DUP2 PUSH2 0x579 JUMP JUMPDEST SWAP1 POP SWAP2 SWAP1 POP JUMP JUMPDEST PUSH32 0x4E487B7100000000000000000000000000000000000000000000000000000000 PUSH0 MSTORE PUSH1 0x11 PUSH1 0x4 MSTORE PUSH1 0x24 PUSH0 REVERT JUMPDEST PUSH0 PUSH2 0x5F0 DUP3 PUSH2 0x3B3 JUMP JUMPDEST SWAP2 POP PUSH2 0x5FB DUP4 PUSH2 0x3B3 JUMP JUMPDEST SWAP3 POP DUP3 DUP3 ADD SWAP1 POP DUP1 DUP3 GT ISZERO PUSH2 0x613 JUMPI PUSH2 0x612 PUSH2 0x5B9 JUMP JUMPDEST JUMPDEST SWAP3 SWAP2 POP POP JUMP INVALID LOG2 PUSH5 0x6970667358 0x22 SLT KECCAK256 DUP12 GT 0xE6 0x4B CALLDATACOPY SWAP6 0xC4 PUSH15 0xFD3725B09B0E730BEEBCB32C231153 0xD7 DUP7 SGT CALLDATACOPY 0xA9 SWAP4 PUSH0 0x4D 0xC2 PUSH5 0x736F6C6343 STOP ADDMOD NOT STOP CALLER "
				},
				"gasEstimates": {
					"creation": {
						"codeDepositCost": "323000",
						"executionCost": "360",
						"totalCost": "323360"
					},
					"external": {
						"balance()": "356",
						"balances(address)": "2779",
						"deposit()": "infinite",
						"withdraw()": "infinite"
					}
				},
				"methodIdentifiers": {
					"balance()": "b69ef8a8",
					"balances(address)": "27e235e3",
					"deposit()": "d0e30db0",
					"withdraw()": "3ccfd60b"
				}
			},
			"storageLayout": {
				"storage": [
					{
						"astId": 5,
						"contract": "vulnerable_contract.sol:VContract",
						"label": "balances",
						"offset": 0,
						"slot": "0",
						"type": "t_mapping(t_address,t_uint256)"
					}
				],
				"types": {
					"t_address": {
						"encoding": "inplace",
						"label": "address",
						"numberOfBytes": "20"
					},
					"t_mapping(t_address,t_uint256)": {
						"encoding": "mapping",
						"key": "t_address",
						"label": "mapping(address => uint256)",
						"numberOfBytes": "32",
						"value": "t_uint256"
					},
					"t_uint256": {
						"encoding": "inplace",
						"label": "uint256",
						"numberOfBytes": "32"
					}
				}
			},
			"userdoc": {
				"kind": "user",
				"methods": {},
				"version": 1
			}
		}
	}
}